:020000021000EC
:1080000000400020A1B00100E9B00100EBB0010088
:108010000000000000000000000000000000000060
:10802000000000000000000000000000EDB00100B2
:108030000000000000000000EFB00100F1B00100FE
:10804000F3B00100F3B00100118C0100B58E010006
:10805000F3B0010000000000F3B00100A98F01009F
:10806000F3B00100ED88010035880100F3B0010094
:10807000F3B00100F3B00100F3B00100F3B0010070
:10808000F3B00100C9A70100F3B00100F3B0010093
:10809000A9A801003D9001006DB00100F3B00100FE
:1080A000F3B00100F3B00100000000000000000088
:1080B00000000000000000000000000000000000C0
:1080C00010B5064C2378002B07D1054B002B02D0AE
:1080D000044800E000BF0123237010BDAC20002045
:1080E0000000000000DE0100084B10B5002B03D09B
:1080F0000749084800E000BF07480368002B00D18B
:1081000010BD064B002BFBD09847F9E7000000009C
:10811000B020002000DE0100AC20002000000000A4
:10812000164B002B00D1144B9D46402292029A1A06
:10813000924600218B460F461348144A121A00F04B
:1081400067F80F4B002B00D098470E4B002B00D048
:1081500098470020002104000D000D48002802D09F
:108160000C4800E000BF00F02DF82000290000F0CE
:108170002BFA00F011F8C046000008000040002073
:108180000000000000000000AC200020A02700201C
:108190000000000000000000084B10B50400002B98
:1081A00002D0002100E000BF054B1868836A002B55
:1081B00000D09847200000F033F8C04600000000CF
:1081C00088CD01000E4B70B500251E000D4CE41A41
:1081D000A410A54204D0AB00F35898470135F8E746
:1081E00004F0C4FD084B00251E00084CE41AA4103E
:1081F000A54204D0AB00F35898470135F8E770BDAD
:10820000A4200020A4200020A4200020A8200020DA
:1082100003008218934202D019700133FAE77047C5
:10822000FEE7C0461D4B1B78012B00D070471C4B4E
:108230001B681B07FAD1F0221A4B1B68134018D198
:10824000194B1B6813421CD0154B1B681B07EDD143
:10825000F022144B1B681340402BE7D1124B1B68D4
:108260001342E3D1C12380220121DB00D205D1508A
:10827000DCE7102B01D0302BEAD10B4B1B681342EB
:10828000E6D10A4A0A4B1A6080220A4B12021A608F
:10829000024B1B78012BD7D0C8E7C046E00F00F097
:1082A000E40F00F0E80F00F0EC0F00F0DFFF07C074
:1082B00004050040186C004082B00190019B002B27
:1082C00014D0019B0A48013B01930138C046C046C7
:1082D000C046C046C046C046C046C046C046C0466E
:1082E000C046C046F1D1019B002BEAD102B07047D5
:1082F000E7030000F8B556465F464D464446F0B4E5
:10830000A44E3378062B00D9A9E0A3499A008A58D5
:1083100097460022A14B1A60A14B1A68A14B19780D
:10832000A14B0139C9B2187800F0D2F99F4BA04A8D
:1083300018609846C36812781978914200D091E08D
:1083400006229C4B1A70062333703CBC904699461B
:10835000A246AB46F8BD954B954A18689846C36847
:1083600012785978914200D1D3E05A704346186888
:1083700000F0F0F94346814618684478012C0FDD7F
:108380004B4659789A1C0123FF2906D1F5E01500C8
:1083900029780132FF2900D18BE00133A342F6DBBB
:1083A00000F0CCF9484603F059FD0022814B1A70C9
:1083B0000023C9E77E4B7F4C1B78FF2B10D0002396
:1083C0002370C1E77A4B7B4C1A78764B1A700223E4
:1083D0002370794B196802238A42B5DDFF2AEED15A
:1083E00001232370B0E76E4D2868002801D003F008
:1083F00035FD6C4C2078013803F026FD674A6C4B44
:1084000011681B7828604354136801331360227885
:10841000013A934213D30522664B1A70052393E762
:10842000634B5E4A19785E4B10681B6819541368D9
:10843000013313605B4A1278013A9342EBD2042273
:108440005C4B1A7004237FE7594A1278511E0229A7
:1084500025D954490878FF2872D0564CBEE7554BB1
:108460001B7871E71A704346186800F073F94346A9
:10847000814618684478013CE4B2012C90D94B46FF
:1084800059789A1C0123FF2905D17FE0150029782E
:108490000132FF2926D00133A342F7DB80E7424BAC
:1084A0001A700322434B1A7000223C4B1A600323BC
:1084B0004AE7DBB2E41AE4B2013C00D270E73F4B7A
:1084C0009A461F682B5D08209B4603F0BDFC5B4667
:1084D00003705346476018600700013CF2D24346E0
:1084E00018685DE7DBB2E41AE4B2013C00D257E75A
:1084F000324B9A461F682B5D08209B4603F0A4FC74
:108500005B4603705346476018600700013CF2D297
:10851000E5E70023274C2370C378012B20D0022BE2
:1085200013D1A0238021264ADB059A58C9055200A1
:1085300013D4A122D200995000F000F9237803E768
:108540000A7002211B4A1170FEE6A02380211C4AFA
:10855000DB059A58C9035202EBD51A4A9950EBE74A
:10856000A021174AC9058A58120E134209D1802248
:10857000A1235204DB00CA50DEE74B465D1C0123F9
:1085800098E780220F4B5204CA50D5E74B465D1C3A
:108590000123A8E73E2300208CCD0100D02000203D
:1085A000482400209227002086270020C820002091
:1085B000362300205824002064200020CC200020F6
:1085C000040500000C050000F0B557464E46454630
:1085D000E0B400F05FFB00F0E1F800F0EDF900F02E
:1085E000F5FC00F09FFC6421012002F00BF800F084
:1085F0000BFD00F02BFD01221C4B1D4F1A700022B9
:108600001C4B1A703B78002B24D01B4B1B4E9946F9
:1086100082235B001A4D984611E0436804789A461D
:1086200003F01CFC5346200033604B461870FFF7E4
:1086300061FE0120FFF740FE3B78002B0AD0306836
:108640000028EAD14346EB5A002BF2D0280000F074
:1086500089FBEAE76420FFF72FFEBFF34F8F094A3B
:10866000094BDA60BFF34F8FFEE7C0469327002027
:10867000682000203E23002036230020CC2000204C
:10868000402300200400FA0500ED00E030B5002A88
:1086900019D01388002914D0FF25040041186D015A
:1086A00020785BBA9BB24340DAB2120953401803F8
:1086B000434018B243012B40434001349BB28C42EB
:1086C000EED1180030BD014BE4E7C046FFFF0000CB
:1086D000F8B5070010200D00160003F0B5FBFF23CE
:1086E000040003700572C7704660681CC0B205358F
:1086F0006570A07003F0A8FBE37805000370227A90
:108700000023002A07D06268D15CEA185170227AEF
:1087100001339342F7DBA17800222800FFF7B6FF70
:108720000600022003F090FB07004670360A067030
:10873000280003F093FBE7602000F8BD10B50400AB
:10874000406803F08BFBE06803F088FB200003F037
:1087500085FB10BD10B50400407803F075FB23784D
:108760000370A3784370E3788370227A0023002A91
:1087700007D06268D15CC218D170227A01339A4264
:10878000F7DCE3685A786378C318013B1A70E36832
:108790001A786378C318023B1A7010BDA222194BD5
:1087A0001949D20099501949194A802099501949FC
:1087B000043299501849194AC0039950A023EB215B
:1087C0000322DB05C9005A5008315A5010315A5063
:1087D00008315A50A121C9005850802040045850F7
:1087E0008020400558508020C00558500C495A50F0
:1087F00004315A5028395A5008395A500021094A30
:1088000099507047006000400315130003171300D0
:108810001405000003191300031D13001C050000BC
:108820004C070000140700000122014B1A7070472A
:1088300098270020A622274B52009958002931D0B2
:108840000021995024490A683932FF320A60012216
:108850009A64224A1278002A24D1A922D2009A5876
:10886000F423FF339A421DD81D4B0422995E1D4A02
:10887000914218DDFA22FA2092009A800622995E2F
:10888000184AC00091421BDC0A1C00291DDBFA219A
:1088900012B289005118DA80A8220E4BD2009850EB
:1088A000114A995070470A1C002910DBFA2112B2B4
:1088B000890050189A800622995E0A4A9142E3DDA7
:1088C000FA21FA22C9009200E5E70022DFE7002240
:1088D000ECE7C04600A0004094270020702600204E
:1088E00074260020E703000044050000A622254B63
:1088F0005200995800292DD0002199504C3AFF3A46
:108900009A64214A1278002A24D1A922D2009A58C6
:10891000F423FF339A421DD81C4B0022995E1C4A57
:10892000914218DDFA22FA2092001A800222995E02
:10893000174AC00091421BDC0A1C00291DDBFA21EA
:1089400012B2890051185A80A8220E4BD2009850BA
:10895000104A995070470A1C002910DBFA2112B204
:10896000890050181A800222995E094A9142E3DD7B
:10897000FA21FA22C9009200E5E70022DFE700228F
:10898000ECE7C046009000407026002074260020CE
:10899000E7030000440500000122054B9A64A92268
:1089A000D2009858034BC0081B68C0187047C046D7
:1089B00000A0004094270020F8B55F4656464D467B
:1089C00044460023504AF0B41360504AA226137064
:1089D000C1239B009A4680231B039B4601215346DB
:1089E0005846A8254A4AF6009151D0504948E433E8
:1089F000ED0053519C461350474B48488027135075
:108A00009946082350465C46BF00D3519846444BD4
:108A1000D16099511C5060463E4C585118514846FF
:108A20003E4C18514046D851D9601160C0225200C6
:108A300094468022D2009046196062464146394BE6
:108A4000043C9950F8395A5891464846364A0240F3
:108A5000C020000402435A5042461A6062469F50AA
:108A60005A5894466046314A0240C02000020243F0
:108A70005A501F602E4A2F4B2F499A512F4A0836C1
:108A80005A502F49234899512E4E9A51A4222E4EC6
:108A9000D2009E502D4A2E4E9A51043699512D499E
:108AA00010365A50A6222C49D20099502B4A2C49F4
:108AB0005A502C4999512C4E9A512C4A5A512C4AB1
:108AC0001A501951154900205A50FF21294A99502E
:108AD0000023294AFA3902F04DF9002803D0002278
:108AE000002101F015FE254A0121254802F0B4F9C4
:108AF00000222449244802F0C9F93CBC904699461A
:108B0000A246AB46F8BDC046942700209827002017
:108B100000A0004044050000C40900004C0500000E
:108B20000090004000E100E0FFFF00FFFF00FFFFBA
:108B30004091004000F0014014050000006000403A
:108B40004C9100401C05000044910040046000402E
:108B5000240500002C05000040A1004008600040F2
:108B6000340500004CA100403C05000044A1004039
:108B70000C60004004050000D4200020298801007A
:108B8000A8CD0100660600009C220020F0B55F46DB
:108B900056464D464446F0B483B00192002A24DD87
:108BA000802399467C3B9246984600230C008A44D9
:108BB000124E134D04279B4609E05B46114A337061
:108BC000114B0134D15043462B6054450DD04B46D8
:108BD0002178EF503378002BEFD10C4800F0B4F837
:108BE000434601342B605445F1D1019803B03CBC9D
:108BF00090469946A246AB46F0BDC046692000208B
:108C000000E100E0002000401C0500005C24002082
:108C1000842210B5194B5200995800291ED18E2379
:108C2000164C5B00E258002A09D000221448E2509A
:108C3000183BC35A002B1BD10122124B1A709222EF
:108C40000E4B52009958002907D0002199509022CC
:108C5000D20099580C4803F0CFF910BD002199506B
:108C6000A322D20099580948C9B200F06DF8D6E79E
:108C700000F078F8064BE050E1E7C04600200040E5
:108C80005C24002069200020ACCD0100402300209E
:108C90001C05000010B51E4800F04CF81D4800F0FF
:108CA00049F8A023E7220321DB05D2009950E821EF
:108CB00000220E20C9005A50174B18495850184925
:108CC00002305850174818495850A0200421C000BD
:108CD0001950842040001A5014301A5001329A6002
:108CE0001A60C2221E38FF3892009850A120043A20
:108CF00080009850C0230D4A5B00D1507C3014583E
:108D00000B4B2340C024240423431350116010BD97
:108D1000402300205C240020002000400C050000BF
:108D20001405000000E0D7012405000000E100E088
:108D3000FFFF00FF80220023FF21520083520232F6
:108D40008152023283527047812210B5FF245200B3
:108D5000835A013323408352C1540232835A013370
:108D6000835210BD802110B5FF2402004900435AF0
:108D7000C05C0133234053520431535A013B5352D8
:108D800010BDC046F0B557464E4645468446E0B451
:108D900089469A460120002A3BD0B123002761462C
:108DA000244E254D254CDB002F702770F15049468D
:108DB000234BF150802189007750B0602978002939
:108DC000FCD000212970012A2ED0802101251948CC
:108DD000890045500121174889460160802189009A
:108DE0008846FF39A325FF39534600268C46ED00FF
:108DF00021780029FCD026704159013AD2B219706D
:108E0000012A0BD049460162002A01D00133EFE765
:108E100000201CBC90469946A246F0BD41466746DC
:108E2000013347500262E3E78021022501488900AF
:108E30004550CFE700300040BC220020BD2200207A
:108E40001C050000F0B5474680B407000120002A49
:108E500027D00025B126A846134CF6002570134DE7
:108E6000AF5180274646BF00EE51114EA951A86070
:108E700021780029FCD000210020013A2170D1B2D4
:108E800001310A4E0A4D59181A7872512278002A77
:108E9000FCD0013320708B42F6D101220020034B1D
:108EA0005A6104BC9046F0BDBC2200200030004056
:108EB0001C050000F8B58423154A5B00D158002931
:108EC00004D00021D1500122124B1A708E23104A77
:108ED0005B00D158002904D00021D15001220E4B53
:108EE0001A7092250A4C6D006359002B0FD00B4E5F
:108EF000A759FFF751FDB123DB000200E358390009
:108F0000074803F079F80323A35100236351F8BD08
:108F100000300040BD220020BC220020C40400001C
:108F2000C0CD0100A023E2211A4ADB05C90010B51B
:108F30005A5008395A500421174B053AFF3A9950B4
:108F4000164A023999500022CD200731FF315A507C
:108F500014315A501249C0045850A120C121800038
:108F6000890058500539FF395A50A022FC39FF3981
:108F7000D2009950C023C0240A4A03315B00D1506B
:108F80007C30135824061B021B0A23431350116024
:108F900010BDC0460C060000003000400C0500006B
:108FA0002405000000E100E080220021054B520072
:108FB0009950A122D2009A58D3009B1A024A1380DA
:108FC0007047C04600700040662500200A4B0B49E0
:108FD0000B4AC0209950A0210122C9005A50FD39E6
:108FE000FF395A50074A000653581B021B0A034315
:108FF000535080231360704700700040041000003D
:109000000405000000E100E070B5A024094E0A4DFF
:109010002B00022221007720FFF7B4FE2B786A781C
:109020001B0202341343E4B233800236B02CEFD17A
:1090300070BDC046C0220020D02200200123024A79
:1090400011784B401370704770260020F0B55F46D2
:1090500056464D464446F0B489B006AD062200217E
:109060002800FFF7D5F840236B70353BAB70023B0F
:10907000EB7009332B71013B6B71784B2900981D04
:1090800006229A4602F003FFAB7803229846414637
:10909000A0230020C131FF31DB058900CA50E978E7
:1090A00084468946C131FF318900CA502979444636
:1090B0008B46C131FF318900C8506F79A12039003A
:1090C0004E46C131FF318900CA506549C0000C507D
:1090D000644C0E515E46A04604340E510126340005
:1090E000BC401C506F78604C3F060F512F785F4D8D
:1090F00064464F518427543D7F00CC514E51E025AA
:10910000ED005A515A4D5A51802292011E501A5068
:109110005246584D2960D27A964042469E5050227F
:10912000554BCC51CA508422C8594D4B520000288F
:10913000F9D0A321C9005958A0200191A121C0054F
:10914000C900465001990127013101914549465016
:109150000020494998505F505850842799584048FA
:109160007F000029F9D00023C351A323DB00C3589B
:1091700002938421C3593A4A4900002BF9D0A32312
:10918000DB00D358A0200293A123C005DB00C6500A
:10919000029B01330293334BC650002306205350E9
:1091A000354BD050842753582D487F00002BF9D0E1
:1091B000A323DB00C358A0220393A123D205DB0025
:1091C000D650039B01330393264BD65000236022D5
:1091D000C351294BC250224B984684235B009946C9
:1091E000C359002BF7D0A3234246DB00D358A02756
:1091F0000493A123FF05DB00FE50049B6420013390
:109200000493FFF759F843462B6053460121DB7A5C
:1092100042469940134B4846F9500023135006220A
:109220004046154BC25043464A4698580028FCD049
:10923000A3230B4ADB00D358A0220593A1230120CE
:10924000DB00D205D150059B0133059309B03CBC2E
:1092500090469946A246AB46F0BDC046D4220020B7
:10926000004000400C0500002405000054050000EB
:1092700034070000E02200201C05000030B5554CEA
:1092800083B0A37A002B00D197E06B46DD1D00234D
:109290002B7023680122597C636818782B00FFF734
:1092A000D1FD002800D088E0236801225979636845
:1092B00018782B00FFF7C6FD002800D07DE023685A
:1092C00001221979636818782B00FFF7BBFD00288D
:1092D00000D072E02423E35C002B36D00C232B70EB
:1092E000236801221979636818782B00FFF7AAFD1B
:1092F000002862D13230FEF7DFFFC0232B70A37A43
:10930000DB0762D4236801221979636818782B007F
:10931000FFF798FD002850D1637C002B58D12B70AB
:1093200023680122597C636818782B00FFF78AFDB7
:10933000002842D12368287059796368012218787F
:109340002B00FFF77FFD404235E004232B7023689C
:1093500001221979636818782B00FFF773FD002844
:109360002BD1A27C4023002A2AD02B702368012213
:109370001979636818782B00FFF764FD00281CD169
:109380003230FEF799FF637C5A1E93412B7023689D
:109390000122597C636818782B00FFF753FD0028E1
:1093A0000BD12300226810335179626810780122B2
:1093B000FFF748FD404203B030BD01204042FAE7CC
:1093C000A27AD207D1D52033CFE7E0232B7099E7DB
:1093D0000223A4E76C20002070B5060082B0282884
:1093E00000D9BBE02323694C01ADE35C00282CD1FC
:1093F000002B18D02870A27C8023002A02D07E3B4C
:109400002B7080332222A25C002A00D08AE02368DD
:109410000122D97D636818782B00FFF713FD00281F
:1094200001D12323E05400232B7007336B70236892
:109430000222597D636818782B00FFF703FD00288E
:1094400000D08BE0207502B070BD012B19D0302305
:109450002B70A27C8033002A02D07E3B2B7080339D
:109460002222A25C002A5BD123680122D97D636895
:1094700018782B00FFF7E6FC002802D101222323F5
:10948000E25420232B70012E6BD0052E59D9142EB7
:109490004AD903236B70A37A002B6FD004236A464A
:1094A000D370E37A042B69D023680122997863682A
:1094B00018786B460333FFF7C5FC002860D16B4674
:1094C0000722DB78E3726B789B011343DBB26B708E
:1094D00023680222597D636818782B00FFF7B2FCDD
:1094E00000283BD108230122A372207322751C336C
:1094F000E35C002B12D12374637C002B0ED16B46EE
:10950000DA702368597C636818786B460333FFF779
:1095100099FC002802D16B46DB786374002092E747
:109520002B70A1E72B7072E702236B70A37A002BDC
:1095300005D005236A46D370E37A052BB4D187237F
:10954000C5E701236B70A37A002B05D006236A467A
:10955000D370E37A062BA7D14723B8E70120404216
:1095600071E700236B70A37A002B05D006236A46AF
:10957000D370E37A062B97D10723A8E7C723A6E782
:109580006B789A0107231343DBB2A0E76C2000201D
:1095900010B5114A0100537A012B19D0002B13D0BA
:1095A000022B0AD0032B0CD1102320240370D37C70
:1095B0000020002B00D00C7010BD08231024037075
:1095C000F5E701204042F7E7022304240370EEE7A9
:1095D000042308240370EAE76C20002070B51C4CBB
:1095E00082B0A37A002B27D06B46DD1DBB2816D88E
:1095F000612817D902232B70E27A00269A420BD0F9
:10960000236801229978636818782B00FFF71AFC09
:10961000002811D12B78E372300002B070BD012315
:109620002B70E9E7292804D8132808D904232B70C4
:10963000E2E703232B70DFE701267642ECE70928F7
:1096400002D905232B70D7E706232B70D4E7C04639
:109650006C20002070B5584C82B0A37A0600002B15
:1096600000D196E02423E35C002B00D091E0227D22
:10967000002A30D0421E272A00D885E02322A25C8F
:1096800001AD002A18D02B70A37C8022002B02D0C1
:10969000022302322B702223E35C002B00D071E006
:1096A00023680122D97D636818782B00FFF7CAFB75
:1096B000002801D12323E05400232B7007336B7063
:1096C00023680222597D636818782B00FFF7BAFBE4
:1096D000002800D12075F920032E31D86B46D870B0
:1096E000236801225978636818786B460333FFF7C3
:1096F000A9FB00284DD16B46FA20D97880000131B2
:1097000001F082FDA37A80B2E0814008002B14D0E2
:1097100001ADBB2821D9012301222B70E37A9342AA
:109720000BD0236801229978636818782B00FFF723
:1097300089FB002801D12B78E372002002B070BDB4
:10974000FA23311C9B009E420FD8FA2089B2800078
:1097500001F05AFD0138C0B2C0E761280ED82928AF
:109760001AD9032303222B70D8E7FA20191C89B2D7
:10977000800001F049FD0138C0B2AFE702230222A8
:109780002B70CBE72A708BE7C0B2FFF725FE0020D5
:10979000D4E701204042D1E7132805D8092807D98A
:1097A000052305222B70B9E7042304222B70B5E7AB
:1097B000062306222B70B1E76C200020F0B5474647
:1097C000242380B4304D82B0EB5C0024002B2BD1DD
:1097D000AC7A002C54D00133984304402F7C2C7475
:1097E000041B621E944106006442002821D12A7D98
:1097F000002A30D06A7C002A16D107326A441370DE
:109800002B689046597C6B68187813000122FFF78B
:1098100019FB002808D143461B786B74002E03D037
:10982000FFF72CFD002827D1200002B004BC904691
:10983000F0BD6A7C002AF3D107226A4413702B68BA
:109840009046597C6B68187813000122FFF7FAFAEA
:109850000028E0D0E4E76B46DA712B680122597CDE
:109860006B6818786B460733FFF7ECFA0028DBD1FA
:109870006B46DB796B74D7E701242F746442D3E71E
:1098800001246442D0E7C0466C200020F0B54F466A
:1098900046467023C0B4050083B0034069D06B46D0
:1098A0009E1D01233370484C01222368597D636853
:1098B00018783300FFF7C6FA002800D07EE0402277
:1098C00033783070934323732A4266D03A2084461B
:1098D0003738814601383823392201213B27804619
:1098E000A80604D443463A00337049466346E80666
:1098F00001D4130031702A0700D433702368012289
:10990000997D636818783300FFF79CFA002855D1D9
:1099100008232A009A4320D02323E35C002B1CD089
:109920006B46D871A37C8022002B03D06A460223A9
:10993000D37182222223E35C002B01D06B46DA71C3
:1099400023680122D97D636818786B460733FFF7D7
:1099500079FA002801D12323E05400233220A57294
:109960002375FEF7A9FC002003B00CBC9046994675
:10997000F0BD00281ED16B464027134C9E1D236866
:109980003770597D6368012218783300FFF75AFA5F
:10999000002813D13378BB4323733E20042384462D
:1099A00037388146013833703D22383305213F274F
:1099B000804695E76A46961D337074E700230120C0
:1099C000A3724042D0E7C0466C200020802370B5CF
:1099D000774C84B002AD2B7023680122597D6368F7
:1099E00018782B00FFF72EFA061E00D0C2E0642084
:1099F000FEF762FC23682E70597D63680122187897
:109A00002B00FFF71FFA002800D0B3E070232B7063
:109A100023680122D97E636818782B00FFF712FAB9
:109A2000002800D0B5E023680622597E63681878C4
:109A30002B00FFF7A7F9002800D09BE004216B79E9
:109A400001269B0019400223EA78520013406A78ED
:109A50000B433240134300D182E0D9B2012B03D033
:109A6000022900D098E00023E37400232B702368C0
:109A70000122D97E636818782B00FFF7E3F9051EF1
:109A800000D086E00122FF235242A3722372637248
:109A9000E372E2812274A3742332FE3BA354237346
:109AA0002233E054607520752000163A16300021EC
:109AB000FEF7AEFB2423E5540133E554A37AE58495
:109AC000002B57D06B46DD1D18232B70237A032BF8
:109AD0000FD0236801229979636818782B00FFF76B
:109AE000B1F9002846D12B78DB082372A37A002B2A
:109AF00040D000232B70637A002B0FD02368012203
:109B0000D979636818782B00FFF79CF9002831D1C8
:109B10002B78DB086372A37A002B2BD005232B70E4
:109B2000E37A052B0BD023680122997863681878B3
:109B30002B00FFF787F900281CD12B78E372FA205D
:109B40008000FFF787FD002814D10020FFF736FEC4
:109B5000041E0FD10020FFF799FE200004B070BD55
:109B600023680122D978636818782B00FFF70AF977
:109B7000002802D001246442EFE70F222B78134023
:109B800010D0042B00D06EE70A4802F035FAE674D4
:109B90006BE703246442E0E70124074802F02CFA53
:109BA0006442DAE70124054802F026FA6442D4E769
:109BB0006C200020A8CE010030CE010058CE01005C
:109BC0002223024AD05400207047C0466C20002057
:109BD000232370B5174C82B0E35C0500834224D088
:109BE00000281DD180228220022600216B460733E7
:109BF0001970A17C002901D002001E702221615C35
:109C0000002900D01A702268D17D62681078012284
:109C1000FFF718F900280AD12323E55402B070BDDC
:109C2000B022B22032263021E0E70020F6E7012002
:109C30004042F3E76C20002070B50D0082B0161E84
:109C400020D0124CA37A002B1CD0020A01AB1A7050
:109C5000C0B26268587040185189884212DC21688D
:109C60001078C97E0222FFF7EDF800280AD1236898
:109C7000EAB2197E636818783300FFF7E3F84042D0
:109C800002B070BD01204042FAE7C0466C200020BF
:109C9000F0B556465F464D464446F0B48BB003934C
:109CA0002523514E01910292F35C8246002B75D11F
:109CB000002973D0002800D194E00400102800DDB2
:109CC00075E0A3B29B46B37A002B67D0002305AFA3
:109CD00070683B707B7043899C425FDC019B002570
:109CE000984638E033681078D97E02223B00FFF7AF
:109CF000A9F8002852D133684A46197E736818784B
:109D000006ABFFF73FF8002848D1220006A94046DD
:109D100002F0AEF800284CD15D44ADB2AA454BD953
:109D200053465C1B102C00DD1024A3B29B46019B04
:109D30009846A8444346002B30D0B37A002B2DD050
:109D40002B0A3B707068EBB222047B70120CD318A4
:109D50004289934222DC33680078D97E02223B009C
:109D6000FFF770F8002819D1E3B2994633684A46E4
:109D7000197E736818784346FFF764F800280DD100
:109D8000B37A002B0AD02B0A3B707268EBB27B705F
:109D90002404240C51891B198B42A3DD012040426D
:109DA0000BB03CBC90469946A246AB46F0BD102491
:109DB00087E702204042F3E7029A130A3B703368B8
:109DC0007A70597F7368022218783B00FFF73AF8DF
:109DD0000028E3D125230122F2546B469B89002001
:109DE000F384DDE705AFE8E76C200020242330B5DD
:109DF0005A4C83B0E35C834276D0002800D17AE0ED
:109E00002522A25C002A00D19EE0002B00D06EE04B
:109E1000A27A002A00D19AE06A46D51D2B702368E9
:109E20000122597C636818782B00FFF70BF8002893
:109E300001D12B786374A37C002B36D023680122D8
:109E40001979636818782B00FEF79CFF00282CD145
:109E5000A37ADB0700D56FE020222B7893432B7089
:109E6000236801221979636818782B00FEF7EAFF4E
:109E700000281AD10330FEF71FFA2223E35C3022B8
:109E8000002B01D0802380322B702323E35C002B36
:109E900000D02A7023680122D97D636818782B00CE
:109EA000FEF7D0FF002800D1A074E08CFFF7D2FBB2
:109EB0006B46002206331A70626823211078012253
:109EC000FEF7C0FF24230122E254223B2B702368BB
:109ED000597C636818782B00FEF7B4FF002801D185
:109EE0002B786374FFF7CAF9002003B030BD6B46CE
:109EF000DD1D002392E7002B22D1A27A002A29D06F
:109F00006A46D51D2B7023680122597C6368187836
:109F10002B00FEF797FF002801D12B786374237C78
:109F200001222B706368232118782B00FEF78AFF2B
:109F300000222423E254D5E720232A7813438EE716
:109F40006B46DD1D2870DEE701204042CDE76B4601
:109F5000DD1D70E76B46DD1DE1E7C0466C2000208B
:109F6000802210B5C823D20002490348FFF790FEB3
:109F700010BDC04640CF0100F60B0000F0B5404CCC
:109F800087B002AF050003AE21000322380001F0C4
:109F90007EFF211D0322300001F079FF2100032202
:109FA000083104A801F073FF210003220C3105A839
:109FB00001F06DFF032108006A466C4628403B5CB7
:109FC0001370EA080A40BB5CB25C6370AB090B40DB
:109FD000F95CF35CA170315C01AC2170627003210B
:109FE0006A462848A370FFF727FE002845D12200C3
:109FF00003212548FFF720FE00283ED1032204A9B3
:10A00000684601F044FF032205A9200001F03FFF4C
:10A010006B0708D56A460123694612781A430A700D
:10A02000227813432370AB0608D56A46012369469C
:10A0300052781A434A70627813436370EB0512D466
:10A0400088206A460321C000FFF7F6FD002814D1DE
:10A05000220003210D48FFF7EFFD00280DD10C4B26
:10A060001D8107B0F0BD6A460123694692781A4304
:10A070008A70A2781343A370E2E701204042F0E720
:10A08000F4CE0100260400002A0400003104000080
:10A09000E422002010B5144986B004000C221031CF
:10A0A00003A801F0F4FEC82C1AD82100C82001F042
:10A0B000ABF8013880B201AA030A507002210B48A4
:10A0C0001370FFF7B9FD00280AD103AA0C21084834
:10A0D000FFF7B2FD002803D1064B9C8106B010BDEE
:10A0E00001204042FAE7C046F4CE0100160200000B
:10A0F000C10A0000E4220020F0B5050083B0430748
:10A100006BD0C823DB00994267D8080001F040FEFD
:10A110004D4901F0B7F96B46DC1C071C2000FFF726
:10A1200037FA2378042B00D17DE033D9082B6AD08D
:10A13000102B52D18A21381CC90501F06DFB01F0AA
:10A1400089F9424986B2381C01F066FB01F082F9B8
:10A1500080B201AC330A2370030A6670A370E0700A
:10A16000EB0729D4AB073CD400206B0737D5EE2092
:10A17000220002214000FFF75FFD00282DD16B4631
:10A180002D309A1D0221FF30FFF756FD431E9841E6
:10A19000404224E0022B20D18D21381CC90501F05A
:10A1A0003BFB01F057F92A4986B2381C01F034FB19
:10A1B00001F050F980B2CCE7EA20220002214000F1
:10A1C000FFF73AFD002808D16B4625309A1D022181
:10A1D000FF30FFF731FD0028C4D00120404203B01A
:10A1E000F0BDEC20220002214000FFF725FD0028F1
:10A1F000F3D16B4629309A1D0221FF30FFF71CFD79
:10A200000028B1D0E9E78B21381CC90501F004FB17
:10A2100001F020F90F4986B2381C01F0FDFA01F077
:10A2200019F980B295E78C21381CC90501F0F4FAC0
:10A2300001F010F9084986B2381C01F0EDFA01F07E
:10A2400009F980B285E7C046000048430000C044D9
:10A2500000004046000040450000C045F0B54E46B5
:10A2600045465746E0B486B0924B03AC0600220048
:10A27000042168200393FFF7DFFC4022A323324030
:10A280002370904600D10DE11D3363700833A37035
:10A29000063BE370C0277F00374000D1FDE0C423B8
:10A2A000237108336371063BA371A32322000A21A3
:10A2B0008148E37123726372FFF7BEFC03233340CE
:10A2C00099464A462023002A00D1B83322000121B2
:10A2D0007A4823706D46FFF7AFFC09227849B30630
:10A2E00000D4D8E01C31280001F0D1FD97202A00CD
:10A2F0000921C000FFF7A0FC002F09D0F30500D50D
:10A30000D4E0704B0393220004216F48FFF794FCC4
:10A31000F30700D4B6E08B20F823220001210001CE
:10A320002370FFF789FCFA210720FFF7E5FEA42040
:10A330003F232A00012140002B70FFF77DFC002302
:10A3400050209A462A000121FF302B70FFF774FC41
:10A350005346EF202B7014232A00022140006B701B
:10A36000FFF76AFC5346ED202B7064232A0002217C
:10A3700040006B70FFF760FC53462B708E23AE20BD
:10A380006B706B33AB702A00693B04214000EB70AB
:10A39000FFF752FC5346AD202B7008232A00022100
:10A3A00040006B70FFF748FC5346AC202B70022333
:10A3B0002A00022140006B70FFF73EFCB307DB0F61
:10A3C000D8332200012141482370FFF735FC730781
:10A3D00052D53F4B00932A0004213E48FFF72CFC46
:10A3E000FEF74CFFF30641D53B4B00932A000421B6
:10A3F0003A48FFF721FCFEF741FF0823384C33436E
:10A400006381FEF73BFF4346002B22D10A204346DF
:10A4100084460C3082461038A37314220423102182
:10A420001A258046002F04D043462A00A3735146C4
:10A4300063461420304201D01300A1734A46002A1B
:10A4400000D0A373002006B01CBC90469946A246DB
:10A45000F0BD1020062384460C3082461038A373CA
:10A460001A220433162120258046DBE70422A3218B
:10A470002800FDF7CDFEB9E704228B212800FDF767
:10A48000C7FEA8E78B20D8232200012100012370FA
:10A49000FFF7D2FB92E7283125E7A32323716371ED
:10A4A000A37102E76370A370E370F3E60D4B0393AF
:10A4B00029E7C04602CAE309A70A0000B60A00005D
:10A4C000F4CE0100B080B490A20A00003D07000065
:10A4D000C0C2C4C6980A0000202830389E0A000076
:10A4E000E4220020B28BB69B0023F0B5C356002BAC
:10A4F00036DD30220023202408212826102594460A
:10A50000382703228256002A18DD062141560022F0
:10A51000002902DD134398B2F0BD00293AD107218A
:10A52000415640320029F5DC51D1082141564032D4
:10A530000029EFDC59D1E0225200EBE7002A27D1B5
:10A54000042282560B00002ADFDC3ED1052282560F
:10A550002B00002AD9DC3B00002AD6D06346D4E782
:10A56000002B0CD10123C356002B16DD3122012311
:10A57000212409212926112594463927C1E73422AF
:10A58000042324240C212C26142594463C27B8E7C8
:10A590002300BAE780225200BCE7002B0CD1022333
:10A5A000C356002B16DD3222022322240A212A263A
:10A5B000122594463A27A4E73522052325240D21A8
:10A5C0002D26152594463D279BE733009DE7A022C5
:10A5D00052009FE7002B0BD13722072327240F219E
:10A5E0002F26172594463F278BE70132FF3291E74C
:10A5F0003622062326240E212E26162594463E2793
:10A600007FE7C04670B5050082B000200E00FFF75E
:10A61000DDF90100324801F0EFFC7820FFF736F950
:10A620000100304801F0E8FC7820FFF7C7F801008E
:10A630002D4801F0E1FC0020FFF7C2FA0120FFF7EE
:10A64000C7FA002D1FD16B46DC1D0122DD711A21D6
:10A6500023006820FEF7F6FB0100244801F0CCFC43
:10A66000FA203100400100F0CFFD0138207019219F
:10A67000230001226820FEF7E5FB01001C4801F0E1
:10A68000BBFC02B070BDFFF76BFC0100194801F084
:10A69000B3FC1948FFF728FFFFF770FC01001748CB
:10A6A00001F0AAFC7220FF30FFF7D8FD010014482A
:10A6B00001F0A2FC6420FFF7EDFC0100114801F05D
:10A6C0009BFC0120FFF792FB01000F4801F094FC76
:10A6D0000A20FEF783FF01000C4801F08DFCD0E753
:10A6E0007CDB010094DB0100ACDB010054DC0100E9
:10A6F0006CDC0100C4DB010098200020DCDB0100E1
:10A70000F4DB01000CDC010024DC01003CDC010076
:10A7100010B50B0001000B4801F06EFC8021A12355
:10A72000A022FA20C900DB00D205D150C000FDF7FD
:10A73000C3FDBFF34F8F044A044BDA60BFF34F8F62
:10A74000FEE7C04684DC01000400FA0500ED00E0ED
:10A7500080218023184A8902D1508022D221174BB0
:10A76000520289005A5040395A5001222F205A6013
:10A770000138C046C046C046C046C046C046C04676
:10A78000C046C046C046C046C046F1D19A600023CC
:10A790000B4A2F2013600138C046C046C046C04651
:10A7A000C046C046C046C046C046C046C046C04679
:10A7B000F1D1044A1370704700E100E0001001403D
:10A7C000F422002014230020A021F0B500234746E6
:10A7D0002C4A490080B45350043153500431535033
:10A7E000043153504C39535004315350264B1B689D
:10A7F000002B37D02549002652582549254F0C6893
:10A80000141B00222402240A904602E0002D1AD0D4
:10A810002B001A68A24216D8A41AB6181A7CDD6951
:10A82000002AF3D0424699691A745A693B68002B92
:10A830001BD0100098470028E8D000220021FFF725
:10A8400067FF002DE4D1144B14491A780B789A4213
:10A850000ED0134A9B009E5080218023114A490349
:10A860005B00D15004BC9046F0BD08009047CDE796
:10A870000132D3B2022B01D00B70EAE700230B7038
:10A88000E7E7C04600100140F82200200405000060
:10A89000F4220020FC2200200823002009230020AD
:10A8A0000C23002000E100E0F0B55F4656464D461F
:10A8B0004446F0B4C54BC64A1B68C6498BB00593E5
:10A8C00009781378994200D157E10133DBB2022BAA
:10A8D00000D100231370C04A9B009B58BB4A9A4684
:10A8E000059B53441B021B0A136001230193BB4BBE
:10A8F00000241B689B46BA4B5A461B7891461900A8
:10A900000393B84B88461B6847460493AF4B013FFF
:10A910001B680793B44B1B78099300239C4606934E
:10A920000893FBB266469846FF2B32D04346D800C8
:10A93000049B9C46130060440178457800961A00F9
:10A94000A9421FD046684A00B446521886780131A1
:10A95000D200C9B262448E4200D1EDE01678022ED8
:10A9600000D1C7E0032EEAD1002BE8D01C74DB69CC
:10A97000002BFBD1013345780093002399461A0040
:10A98000A942DFD14746013FFBB2009E9846FF2B0C
:10A99000CCD1089BC8460292B446002B00D0F0E010
:10A9A000069B002B02D0894B079A1A606346002B46
:10A9B00002D04246894B1A60019B002B00D02DE14A
:10A9C0005B46029A00259B1A5A1E9341DBB20593FF
:10A9D0007E4B00271B6802999C46804B1B689B4658
:10A9E000814B1B78069300230193804B99460123EA
:10A9F0000093039B013BDBB20393FF2B00D1F9E0F3
:10AA0000049ADB0092460E009A44002D28D06A6812
:10AA1000A9682C00ED696346D31A1B021B0A4B453B
:10AA200052D86A4612785B1823606760A760227468
:10AA3000E761002E58D031683000994205D3B9E063
:10AA40001168994200D3A3E01000C2695B1A002A82
:10AA5000F6D1E26132002360C4611600002DD6D128
:10AA600053461A785B7831009342C2D05146496808
:10AA70005300884651469B180132D2B20A70897839
:10AA8000DB004344914200D19DE019783200012956
:10AA9000E3D15C68227C9046414632000029DCD13B
:10AAA0009A686260D968A1601869E0605B69A36117
:10AAB000069B002BAFD04346002263606346D31A47
:10AAC0001B021B0A4B45ACD963469A1A1202120AA2
:10AAD0008A4264D28B1A6A46127823606760A76044
:10AAE0002274E761002EA6D122000123A346019320
:10AAF0001600B3E75668002B30D09E421ED0009A55
:10AB00001F00944602E0964206D01700FA69002A18
:10AB1000F9D16246009212E765460095BA420FD01D
:10AB20001568D269FA61002A16D013689C466544FC
:10AB3000156045784B4602E700210FE71A001F0019
:10AB4000DE69002E0CD0012500951568D269B1464A
:10AB50003300FA61002AE8D14578F0E60023EEE6FA
:10AB60000125234B9D600095069500250023079540
:10AB70000135994608950995D2E700239A46019335
:10AB8000B5E66A4624215218174B12781A7007E767
:10AB9000C91A1160E26123603200C4615DE76B464F
:10ABA0001B7827606760A7602374E761002E9BD045
:10ABB00000233168CB1A336022000123E661A346EB
:10ABC000019316004AE7524615705EE7F422002012
:10ABD00008230020092300200C230020F822002055
:10ABE00000230020042300200A230020FEFF7F0012
:10ABF00000100140019B002B00D09DE0029B994278
:10AC000036D1059B002B33D10023534A13700BB070
:10AC10003CBC90469946A246AB46F0BD4F4B002443
:10AC200018680025029B00210026574615E01A6887
:10AC3000BA4200D984E0D868BF1A89181E60DC695E
:10AC4000002807D0DD611D00059A98605218120295
:10AC5000120A5A6023002000019C002BE7D1002C2F
:10AC600001D03E4B18600023029301330593AFE6F9
:10AC7000002900D15DE00B6839489846394B3A4DC0
:10AC8000C4583A4B2E781B68E11A0902090A0331AD
:10AC9000002E2DD042468A4200D20A00A820D218A7
:10ACA00012022F49130AC0002E4D0B504A591B1B8C
:10ACB000121B1202120A1B0203321B0A9A42A3D968
:10ACC0004B590B502F200138C046C046C046C046E5
:10ACD000C046C046C046C046C046C046C046C04644
:10ACE000F1D180218023224A89025B00D1508BE779
:10ACF0008026D1277602BF00C651403FC651C022F0
:10AD000080271B4EBF025200B750376001260660F5
:10AD10002F200138C046C046C046C046C046C04687
:10AD2000C046C046C046C046C046C046F1D12E709F
:10AD3000B0E7FFF70DFD67E75A46084B1A605DE77D
:10AD4000BA46002C01D0054908605146521A1A60D3
:10AD50000293012305933BE60A230020F8220020FA
:10AD6000001001400405000014230020F4220020FC
:10AD700000E100E0F8B54F464646C0B40326350072
:10AD800080460F001400994615400720002D03D07F
:10AD90000CBC90469946F8BD002A44D0FFF7D8FC79
:10ADA0004A46224B80201A602200214B18321E7026
:10ADB000204B62601C607B00DB19DB00D218E26074
:10ADC000D318C022636125706570A7702572657203
:10ADD000A77225746574A774C524FF21164B400320
:10ADE0001D60164B52001D70154BA4001D70154BB5
:10ADF00098501A598A433F390A431A51A1221860C0
:10AE000040461149D2008850C42080001C580F4A87
:10AE10002240C024240222431A500D4B0020CA585D
:10AE20000C4B1A60B4E7034B1A60B1E7FC22002018
:10AE30000023002004230020F82200200823002003
:10AE40000923002000E100E000100140FF00FFFFA7
:10AE500004050000F422002010B50B4B1B68002BEA
:10AE60000BD0002A07D0002805D0036808201C7CDE
:10AE7000002C04D010BD0720FCE70820FAE7597425
:10AE80005A610020F6E7C04604230020F0B5344B99
:10AE90001C68002C06D0002804D00723042903D8FE
:10AEA0001800F0BD0823FBE74369002BFAD0437C70
:10AEB000012B44D000262B4B10255B68DB05DB0DF6
:10AEC00025D164196378A5785F1CFFB2BD423AD0E2
:10AED0002578BD4235D05D00ED186368ED009C46D5
:10AEE00065440423002DDBD0033B2B7068601E4BB0
:10AEF0001E48C358E960AB60802180236A611C4A08
:10AF00005B0049032E616770D1500023C8E7103BF6
:10AF10005DB2002D19DBAD08C035154FAD00ED5900
:10AF200003273B40DB00DD40AB093B40DBB20025A3
:10AF3000012BC6D00835032BC3D00835C1E70E005E
:10AF4000B9E70423ACE70027C2E70F25094FDBB2BE
:10AF5000BC461D40083DAD08AD0065446D68DFE7A7
:10AF60000423002000ED00E0040500000010014073
:10AF700000E100E018ED00E051DF704761DF70474D
:10AF8000F0B557464E464546E0B4344B344E1D6846
:10AF900099466B425D41334BEDB21C689846634263
:10AFA0005C4182B0E4B2304FB246002D13D0002C89
:10AFB00040D13C68338801A920000B80FFF7DEFFF9
:10AFC000052837D000282AD000220021FFF7A0FB57
:10AFD0000024002DEBD101A8FFF7CEFF05280DD0EE
:10AFE000002822D000220021FFF792FB002C27D05E
:10AFF000012401A8FFF7C0FF0528F1D1002C19D1C9
:10B0000053466A461B8801A99380174B1C68200091
:10B01000FFF7B4FF05280DD001250028D4D1434601
:10B0200020001B6898470024D3E74B4601981B6813
:10B030009847DBE702B01CBC90469946A246F0BD9B
:10B040006A46074B01A91B889380074B1C682000A8
:10B05000FFF794FF0528B5D10124CAE71C2300207F
:10B0600016230020202300201823002010B50A4BAF
:10B070001B68002B08D09847002800D110BD002283
:10B080000021FFF745FBF9E7044B1B78002BF5D0B7
:10B09000FFF776FFF2E7C0462423002015230020A7
:10B0A00003210A4802680A430260094802680A4309
:10B0B00002600849084A094B9B1A03DD043BC85843
:10B0C000D050FBDC06488047064800472405004076
:10B0D0005405004008DE010000200020AC200020C4
:10B0E0002582010021810100FEE7FEE7FEE7FEE781
:10B0F000FEE7FEE7002243088B4274D303098B422C
:10B100005FD3030A8B4244D3030B8B4228D3030C37
:10B110008B420DD3FF22090212BA030C8B4202D3D9
:10B120001212090265D0030B8B4219D300E0090A01
:10B13000C30B8B4201D3CB03C01A5241830B8B420A
:10B1400001D38B03C01A5241430B8B4201D34B03F3
:10B15000C01A5241030B8B4201D30B03C01A524158
:10B16000C30A8B4201D3CB02C01A5241830A8B42DD
:10B1700001D38B02C01A5241430A8B4201D34B02C6
:10B18000C01A5241030A8B4201D30B02C01A52412A
:10B19000CDD2C3098B4201D3CB01C01A52418309DE
:10B1A0008B4201D38B01C01A524143098B4201D318
:10B1B0004B01C01A524103098B4201D30B01C01A43
:10B1C0005241C3088B4201D3CB00C01A52418308BD
:10B1D0008B4201D38B00C01A524143088B4201D3EA
:10B1E0004B00C01A5241411A00D20146524110464A
:10B1F0007047FFE701B5002000F0F0F802BDC0463F
:10B200000029F7D076E7704703460B437FD400222E
:10B2100043088B4274D303098B425FD3030A8B42EA
:10B2200044D3030B8B4228D3030C8B420DD3FF2254
:10B23000090212BA030C8B4202D31212090265D022
:10B24000030B8B4219D300E0090AC30B8B4201D3D5
:10B25000CB03C01A5241830B8B4201D38B03C01A1C
:10B260005241430B8B4201D34B03C01A5241030B93
:10B270008B4201D30B03C01A5241C30A8B4201D344
:10B28000CB02C01A5241830A8B4201D38B02C01AEF
:10B290005241430A8B4201D34B02C01A5241030A66
:10B2A0008B4201D30B02C01A5241CDD2C3098B424B
:10B2B00001D3CB01C01A524183098B4201D38B01C8
:10B2C000C01A524143098B4201D34B01C01A52416B
:10B2D00003098B4201D30B01C01A5241C3088B42B0
:10B2E00001D3CB00C01A524183088B4201D38B009B
:10B2F000C01A524143088B4201D34B00C01A52413D
:10B30000411A00D201465241104670475DE0CA0F13
:10B3100000D04942031000D34042534000229C46D3
:10B3200003098B422DD3030A8B4212D3FC228901DD
:10B3300012BA030A8B420CD3890192118B4208D3B3
:10B34000890192118B4204D389013AD0921100E015
:10B350008909C3098B4201D3CB01C01A5241830929
:10B360008B4201D38B01C01A524143098B4201D356
:10B370004B01C01A524103098B4201D30B01C01A81
:10B380005241C3088B4201D3CB00C01A52418308FB
:10B390008B4201D38B00C01A5241D9D243088B4251
:10B3A00001D34B00C01A5241411A00D201466346F4
:10B3B00052415B10104601D34042002B00D5494258
:10B3C000704763465B1000D3404201B5002000F097
:10B3D00005F802BD0029F8D016E770477047C0464F
:10B3E0008446081C6146FFE71FB500F0D1F900282C
:10B3F00001D40021C8421FBD10B500F05DF94042E4
:10B40000013010BD10B500F0C3F9002801DB0020A9
:10B4100010BD012010BDC04610B500F0B9F90028DC
:10B4200001DD002010BD012010BDC04610B500F0A8
:10B430006BF9002801DC002010BD012010BDC046C2
:10B4400010B500F061F9002801DA002010BD0120DC
:10B4500010BDC0469E2110B5C905041CFFF7F0FFC2
:10B46000002803D1201C00F071FC10BD9E21201C7F
:10B47000C90500F0E5FA00F069FC80231B069C4634
:10B480006044F2E7F0B5564644465F464D46F0B498
:10B4900044024600C70F83B08846650A360EBA4696
:10B4A0003DD0FF2E22D00023EC00802599469B46FC
:10B4B000ED0425437F3E43465C025800DB0F640ADF
:10B4C000000E984636D0FF2830D080230021E400BB
:10B4D000DB041C437F38301A01904846424608433B
:10B4E000724E800030587A4013008746002D44D1B8
:10B4F00008239946063B9B46DDE70122FF200024F6
:10B500001A406402C305640AD2071C431443200096
:10B5100003B03CBC90469946A246AB46F0BD002D18
:10B5200020D104239946033B9B46C4E7002C17D146
:10B53000022102E0002C0AD10121321A01924A466E
:10B5400043460A435A48920082587B40974620005F
:10B5500000F05CFC431F76309C4040420021BAE77B
:10B560000321B8E7280000F051FC431F9D40002351
:10B570007630464299469B469DE70C239946093B07
:10B580009B4698E780240022E403FF20B9E70024CB
:10B59000C2468B465A465346022AAED0032A7DD075
:10B5A000012A31D1012200201A400024A9E70122FA
:10B5B000101A1B2856DD1A4000200024A1E7802322
:10B5C000DB031D424BD18023DB032B435C02640A67
:10B5D0003A00FF2095E76D016001854230D2019A63
:10B5E0000024013A01921B220127290064006D000A
:10B5F000002901DBA84201D82D1A3C43013A002A58
:10B60000F3D16A1E95412C4301987F300028CEDD8E
:10B61000620704D00F222240042A00D00434220101
:10B6200003D5244A019814408030FE2800DD64E7E9
:10B630000122A401640AC0B21A4062E72C00A9E703
:10B640002D1A1A220124CFE76B02BCD500248023D7
:10B65000DB031C436402640A4246FF2051E71C429C
:10B66000B3D1F4E721002022C140101A8440621EA9
:10B6700094410C43620704D00F222240042A00D0D8
:10B680000434620104D5012201201A40002438E765
:10B690000122A401640A1A40002032E78023DB0360
:10B6A0001C436402640A5246FF202AE7ACDC010016
:10B6B000ECDC0100FFFFFFF7430270B542004C00D5
:10B6C0005D0AC30F4802120E460A240EC90FFF2A54
:10B6D0000FD0FF2C11D00120A24200D070BDB54286
:10B6E000FCD18B420DD0002AF8D12800431E98418E
:10B6F000F4E70120002DF1D1EBE70120002EEDD180
:10B70000E9E70020EAE7C0464302F0B542005D0ADF
:10B71000C30F4802440A4800120E000EC90FFF2A48
:10B720001FD0FF2822D0002A09D16E426E41002886
:10B730000FD1002C0DD10020002D09D005E00028EC
:10B7400001D1002C01D08B4213D058420123184361
:10B75000F0BD002EF7D04842414101204942084344
:10B76000F6E7002DDDD002204042F1E7002CDAD0D0
:10B77000F9E78242E9DC04DBA542E6D80020A542D5
:10B78000E6D25842434101205B421843E0E7C046FD
:10B790004302F0B542004C005E0AC30F4802120E8D
:10B7A000450A240EC90FFF2A17D0FF2C19D0002AF2
:10B7B0000BD170427041002C17D0002807D04842AE
:10B7C0004141012049420843F0BD002C13D08B4277
:10B7D00014D0584201231843F6E70220002EF3D17B
:10B7E000E3E70220002DEFD1E1E7002DE5D10020B5
:10B7F000002EE9D0EDE7002DE9D1EAE7A242E8DC2E
:10B8000004DBAE42E5D80020AE42DDD258424341CF
:10B8100001205B421843D7E7F0B557464E464546F0
:10B820004300E0B446028846760A1F0EC40F002F7C
:10B8300047D0FF2F25D0002380259A469946F60051
:10B84000ED042E437F3F434642465D02D20F5B002C
:10B850006D0A1B0E904640D0FF2B39D0802200206D
:10B86000ED00D20415437F3BFB1842465746591C56
:10B8700062408C4607430F2F5CD86F49BF00C959FF
:10B880008F46002E45D108239A46063B9946DAE7B3
:10B89000424602282DD0032800D1C3E0012800D061
:10B8A000A2E0002500260240D4B27602ED05760A19
:10B8B0002E43E407264330001CBC90469946A2461E
:10B8C000F0BD002E1AD104239A46033B9946BAE7ED
:10B8D0002A00511E8A41901CC6E70120002DC3D0CA
:10B8E000280000F093FA431F76309D404342002029
:10B8F000BAE70124FF2514400026D6E7300000F007
:10B9000085FA431F9E400023763047429A46994667
:10B9100099E70C239A46093B994694E78026002430
:10B92000F603FF25C1E735004846B2E7350022009F
:10B930004846AEE72904090C0800370C3604360CDB
:10B940002C0C7943704367437443060C6418361912
:10B95000B14203D980214902884647440004000CC3
:10B96000310409188D01681E8541890E2943350C63
:10B97000ED19AD010D43290104D5012369081D40CE
:10B9800063460D4319007F31002925DD680704D087
:10B990000F202840042800D00435280103D527496A
:10B9A00080330D401900FE29A3DC0124AD016E0A8D
:10B9B0001440CDB279E78020C003064207D005428B
:10B9C00005D128434602760A4446FF256DE7064323
:10B9D0007602760AFF2568E70124611A1B2905DD36
:10B9E00014400025002660E76346CBE72E002023A5
:10B9F000CE40591A8D406B1E9D412E43730704D0D3
:10BA00000F233340042B00D00436730104D50124E6
:10BA100001251440002648E70124B601760A1440A7
:10BA2000002542E780260124F6032E437602760A9B
:10BA30001440FF2539E7C0462CDD0100FFFFFFF76A
:10BA4000F8B54A024E0043024400240EC50F9B097C
:10BA5000360EC90F9209FF2E00D183E0012041402C
:10BA6000A01BA9425CD0002800DC95E0002E1CD170
:10BA7000002A00D081E05A0704D00F221A40042A7D
:10BA800000D004335A013BD50134FF2C00D191E0A2
:10BA900001209B015B0AE4B205405B02E4055B0AFE
:10BAA000ED0723432B431800F8BDFF2CE3D0802182
:10BAB000C9040A431B2800DD90E016002021C6407F
:10BAC000081A8240511E8A4132439B1A5A0115D5E9
:10BAD0009B019E09300000F099F9053886408442A8
:10BAE0006CDC041B330020200134E340041BA6401F
:10BAF000721E964100243343BDE70D005A07BCD1A6
:10BB0000DF0801231D40FF2C33D1002F00D190E02E
:10BB10008022D20313003B435B025B0AFF24BCE795
:10BB200000284FDD002E2ED0FF2CA4D08025ED0460
:10BB30002A431B2800DD97E016002025C640281A5E
:10BB40008240501E824132439B185A01D5D50134A0
:10BB5000FF2C6DD001227B481A405B080340134341
:10BB60000D0088E7002A00D07AE777E7031EC5D1E9
:10BB700000257B025B0AE4B28FE701380028A4D0DD
:10BB8000FF2C97D177E7002A00D174E7013800280D
:10BB9000DAD0FF2CCDD16EE7002821D1601CC0B2D5
:10BBA000012858DD80279E1AFF0437402FD0D61A6F
:10BBB0000D008FE701231D4000236EE7624B241A1E
:10BBC000334058E7002851D1601CC6B2012E33DD46
:10BBD000FF282DD09B185B0804004CE7012274E776
:10BBE000002C1AD0FF2E1FD08024E40440422343AF
:10BBF0001B2800DD96E01D002024C540201A83404C
:10BC0000581E83412B43D31A34000D005EE7002EEB
:10BC100000D05FE700250024ABE7002B44D0C043F1
:10BC20000028F0D0FF2EE3D11300FF240D0022E7FF
:10BC30000D00FF24002330E7002C5DD1002B7DD0C8
:10BC4000002A00D117E79B185A0100D456E73E4A54
:10BC5000040013400FE7002C1ED1002B2FD1002A27
:10BC600065D013000D0006E701226DE7002C1FD1FF
:10BC7000002B59D0C04300280BD0FF2E4FD01B28DB
:10BC80005EDC1D002024C540201A8340581E8341DD
:10BC90002B439B18340058E7002B1CD1002A49D0B5
:10BCA00013000D00FF24E6E6130034000D00E2E669
:10BCB000FF2E34D08024E40440422343DFE7002AEF
:10BCC00000D1D8E68027981AFF04074000D14DE73D
:10BCD000D31A0D00CFE6FF24002A00D1CBE6802046
:10BCE000DB08C003034204D0D208024201D1130092
:10BCF0000D00DB00FF24BEE6002B10D0FF24002A3D
:10BD000000D1B8E68020DB08C003034203D0D2088C
:10BD1000024200D11300DB000D00FF24ABE613004C
:10BD2000FF24A8E601236EE713003400A3E60027F2
:10BD300000251EE780270025FF03E9E613009AE6A9
:10BD40000123A6E7FFFFFF7DFFFFFFFB4302590A28
:10BD50004300C20F1B0E00207E2B0EDD9D2B0DDC41
:10BD6000802000040143952B0BDC9620C31AD94098
:10BD70000B005842002A00D118007047034BD0181E
:10BD8000FBE7963B99400B00F3E7C046FFFFFF7FC0
:10BD900070B5041E28D000F039F89E231B1A962B8C
:10BDA0000ADC9622D21A94406202520AD8B2520297
:10BDB000520AC005104370BD992B18DC9922D21A83
:10BDC0009440114A2240610704D00F210C40042CFA
:10BDD00000D00432510103D50B4B1A409F231B1A8C
:10BDE0009201520AD8B2E2E700200022DFE70522E2
:10BDF0002500121AB921D5402200C91A8A40541EC2
:10BE0000A2412C001443DCE7FFFFFFFB1C210123B0
:10BE10001B04984201D3000C10391B0A984201D32D
:10BE2000000A08391B09984201D30009043902A20B
:10BE3000105C40187047C046040302020101010172
:10BE4000000000000000000010B5034B010018685E
:10BE500000F072F810BDC0466020002010B5034B02
:10BE60000100186800F01CF810BDC04660200020DA
:10BE700030B50024A24208D0035D651C0C5DA342CE
:10BE800001D0181B02E02C00F4E7002030BD002395
:10BE900010B59A4203D0CC5CC4540133F9E710BD0D
:10BEA00070B50500002944D00C1F2368002B00DA70
:10BEB000E418280000F0A1F91E4A13681100002BB5
:10BEC00002D16360146031E0A3420DD92268A0184A
:10BED000834203D118685B688218226063600C603B
:10BEE00024E0A24203D813005A68002AF9D11E6840
:10BEF0009819A0420BD12168711858181960824214
:10BF000014D110685268411819605A600EE0A042BE
:10BF100002D90C232B6009E021686018824203D10A
:10BF2000106852684118216062605C60280000F06F
:10BF300065F970BD2C230020032370B5CD1C9D43F3
:10BF4000083506000C2D01D20C2501E0002D01DB87
:10BF5000A94202D90C23336048E0300000F04DF9CB
:10BF6000234B1C681A002100002913D00B685B1BAF
:10BF70000DD40B2B02D90B60CC181EE08C4202D1E1
:10BF8000636813601AE04B6863600C0016E00C00F5
:10BF90004968E9E7174C2368002B03D1300000F013
:10BFA00045F820602900300000F040F8431C18D00C
:10BFB0000323C41C9C43A0420DD12560300000F037
:10BFC0001DF9200007220B30231D9043C31A0ED009
:10BFD0005A42E2500BE0211A300000F027F8431CCF
:10BFE000EBD10C233000336000F008F9002070BD65
:10BFF0002C230020282300200FB40B4B13B51C6802
:10C00000002C05D0A369002B02D1200000F062F8BB
:10C0100005AB049AA1682000019300F017F916BC43
:10C0200008BC04B01847C04660200020002370B54B
:10C03000064C05000800236000F08AFE431C03D173
:10C040002368002B00D02B6070BDC0469C270020C9
:10C0500010B5024900F0B0F810BDC04631CB010068
:10C06000002310B504000360436083608181436650
:10C07000C281036143618361190008225C30FCF7CF
:10C08000C7F8054B24626362044BA362044BE3626E
:10C09000044B236310BDC046A5C70100CDC70100F6
:10C0A00005C8010031C8010070B568254B1E5D430D
:10C0B0000E0029007431FFF73FFF041E08D0002155
:10C0C0002A00016046600C30A0606832FCF7A0F8DE
:10C0D000200070BD836913B50400002B28D1836450
:10C0E000C3640365134B144A1B6882620193984230
:10C0F00001D101238361200000F020F8606020005E
:10C1000000F01CF8A060200000F018F80022E060A9
:10C1100004216068FFF7A4FF01220921A068FFF74E
:10C120009FFF02221221E068FFF79AFF0123A3611B
:10C1300013BDC04688CD010051C00100F8B51D4BAC
:10C1400006001D68AB69002B02D12800FFF7C2FF73
:10C150004835AC686B68013B05D40C22A75E002F04
:10C1600010D06834F7E72B68002B01D02D68F0E77A
:10C1700004213000FFF798FF28600028F6D10C2337
:10C18000336016E0012320005B42E3810233A38188
:10C1900067662760A760676027616761A7615C3099
:10C1A00008223900FCF734F820006763A763A7640E
:10C1B000E764F8BD88CD0100F7B50400070000264C
:10C1C00001914834002C16D06368A5680093009B49
:10C1D000013B00930DD4AB89012B08D90E22AB5E35
:10C1E000013304D029003800019B98470643683585
:10C1F000EDE72468E6E73000FEBD704770479368BE
:10C2000010B5013B9360002B05DA9469A34208DB6B
:10C21000CBB20A2B05D01368581C10601970C8B235
:10C2200001E000F00BFB10BDF8B506000F00140094
:10C23000D518AC4208D021783A003000FFF7DFFF74
:10C240000134431CF5D100E00020F8BDF0B59FB0EB
:10C2500006000F0002920593002804D08369002B8A
:10C2600001D1FFF737FF7F4B9F4201D1776808E08C
:10C270007D4B9F4201D1B76803E07C4B9F4200D1C8
:10C28000F768BB891B070AD53B69002B07D0002341
:10C2900006AD6B6120336B761033AB763DE0390031
:10C2A000300000F037FB0028F1D001204042D6E0FA
:10C2B000059A111D12680591002A00DA7FE00992A3
:10C2C000013423782E2B00D18DE021780322684899
:10C2D00000F0D2FC002807D0654B2A68C01A402322
:10C2E000834013432B6001342178631C062261488C
:10C2F0000293297600F0C0FC002800D19DE05E4B3F
:10C30000002B00D090E00722059B073393430833AE
:10C3100005936B69039A9B186B61029C2378002B31
:10C3200004D1029BE31A049312D003E0252BF8D02A
:10C330000134F3E7049B029A39003000FFF774FFE1
:10C34000431C00D186E06A69049B944663446B6198
:10C350002378002B7ED00122002352426A6002A97A
:10C360005432521801342B60EB60AB601370AB6534
:10C3700021780522414800F07FFC002808D03F4B7F
:10C380002A68C01A0123834013432B600134EFE76E
:10C390002B68DA0604D55322202102A81218117046
:10C3A0001A0704D553222B2102A8121811702278E3
:10C3B0002A2A00D17CE7099B00200A2105E052428D
:10C3C000EA60022213432B607AE72278303A092A86
:10C3D00004D84B4301349B180120F6E7002800D114
:10C3E0006FE709936DE763782A2B0AD1059B023426
:10C3F0001A1D1B680592002B01DA01235B4207938B
:10C4000063E700230A201A0001346B602178303979
:10C41000092904D84243013452180123F6E7002BBE
:10C4200000D152E7079250E705AB00933A00144B56
:10C430002900300000E000BF07E005AB00933A00A0
:10C440000F4B2900300000F08BF80390039B013361
:10C4500000D05EE7BB895B0600D526E70B981FB0CE
:10C46000F0BDC0466CDD01008CDD0100ACDD0100DB
:10C47000D2DD0100D6DD010000000000CCDD0100AE
:10C4800029C20100F7B5170001938A680B69009073
:10C490000C00934200DA130022003B604332127812
:10C4A000002A01D001333B6023689B0602D53B681C
:10C4B00002333B60062523681D401ED02300433312
:10C4C0001B785A1E9341226892061CD53020E11831
:10C4D0004331087021005A1C45310978A2184332B3
:10C4E000023311700FE022000123193201990098E4
:10C4F000089EB047431C0ED00135E3683A689B1A8A
:10C500009D42F0DBDAE72200019943320098089D52
:10C51000A847431C02D10120404220E006232068A6
:10C52000E1683A6803400025042B03D18D1AEB43E0
:10C53000DB171D40A3682269934201DD9B1AED18A9
:10C540000027BD420AD0220001231A320199009827
:10C55000089EB047431CDED00137F2E70020FEBD45
:10C56000F0B58BB006920A0043320793059004920F
:10C570000A7E0C00109B6E2A00D1ABE011D8632A12
:10C5800022D009D8002A00D1B5E0582A00D0C5E051
:10C5900045310A70814A4FE0642A1DD0692A1BD0B8
:10C5A000BCE0732A00D1AAE009D86F2A29D0702AEA
:10C5B00000D0B3E0202209680A43226037E0752AE0
:10C5C0001FD0782A33D0A9E00E001A684236111D18
:10C5D000196013683370A4E021681A68080606D44D
:10C5E000490604D5111D19600023D55E02E0111D16
:10C5F00019601568002D3BDA2D23049A6D421370E3
:10C6000036E021681A68080606D4490604D515687C
:10C61000111D1960ADB202E0111D196015685F4B64
:10C62000227E039308276F2A1DD00A271BE02200D1
:10C630007821453211705A4A19680392081D226800
:10C6400018600D68100602D4500600D5ADB2D307AD
:10C6500002D520231A4322601027002D03D1202366
:10C6600022689A4322602300002243331A7002E0BA
:10C670000A274A4B03936368A360002B09DB04225B
:10C68000216891432160002D05D1049E002B11D01B
:10C690007BE0002D79D0049E28003900FEF7B0FD24
:10C6A000039B013E5B5C280033703900FEF722FDDE
:10C6B000051EF1D1082F09D12368DB0706D5636871
:10C6C0002269934202DC3023013E3370049B9B1BA2
:10C6D00023612BE009681A68080607D4490605D5C6
:10C6E000111D19601368A28A1A8004E0111D1960D7
:10C6F000136862691A600023049E236116E01A68B9
:10C70000111D1960166800216268300000F0B4FA4B
:10C71000002801D0801B6060636803E02600423679
:10C720003270012323610023049A1370079B09AA26
:10C7300000932100069B0598FFF7A4FE431C02D13D
:10C740000120404227E02369320006990598079DA1
:10C75000A847431CF4D0236800259B070FD4099BEE
:10C76000E068984217DA180015E022000123193218
:10C7700006990598079EB047431CE1D00135E36850
:10C78000099A9B1A9D42F0DBE9E72600039B42369B
:10C790001B7833708EE70BB0F0BDC046DDDD0100C5
:10C7A000EEDD010070B50C000E25495F00F070FA57
:10C7B000002803DB636D1B18636503E0A289024B4D
:10C7C0001340A38170BDC046FFEFFFFFF8B51F0007
:10C7D0008B8905000C001600DB0505D50E23C95E0C
:10C7E0000022022300F0D0F9A289054B2800134053
:10C7F000A38132000E23E15E3B0000F077F8F8BD24
:10C80000FFEFFFFF70B50C000E25495F00F0BCF98B
:10C81000A389421C03D1054A1340A38104E080226E
:10C8200052011343A381606570BDC046FFEFFFFF57
:10C8300010B50E23C95E00F0E3F810BDF8B5050091
:10C840000F001400002804D08369002B01D1FFF7EA
:10C8500041FC234B9C4201D16C6808E0214B9C4277
:10C8600001D1AC6803E0204B9C4200D1EC68A36985
:10C87000A360A3891B070AD52369002B07D023686F
:10C880002269FEB2981A636998420FDB08E0210022
:10C89000280000F03FF80028F1D0012040421DE0C0
:10C8A0002100280000F044F90028F6D1A3680130E7
:10C8B000013BA36023685A1C22601F706369984281
:10C8C00005D0A3893000DB0708D50A2E06D1210048
:10C8D000280000F02DF90028DFD13000F8BDC04657
:10C8E0006CDD01008CDD0100ACDD010070B50500E0
:10C8F000080011000022064C22601A00FCF746F9DD
:10C90000431C03D12368002B00D02B6070BDC046B0
:10C910009C270020364B70B51D6806000C00002DCA
:10C9200005D0AB69002B02D12800FFF7D3FB314BB8
:10C930009C4201D16C6808E02F4B9C4201D1AC684D
:10C9400003E02E4B9C4200D1EC680C22A35E9AB20D
:10C95000110723D4D10607D40922012032603732CF
:10C960001343A381404242E0530713D5616B002972
:10C9700008D023004433994202D03000FFF790FAE8
:10C98000002363632422A3899343A381002363606C
:10C99000236923600822A3891343A3812369002B01
:10C9A0000BD1A0238022A1899B0092000B409342CF
:10C9B00003D02100300000F021F90123A2891340A7
:10C9C00005D00023A36063695B42A36103E0920783
:10C9D00000D46369A36000202369834207D10C223D
:10C9E000A35E1A0603D540221343A381013870BD0C
:10C9F000602000206CDD01008CDD0100ACDD010059
:10CA0000002370B5064C05000800236000F078F99B
:10CA1000431C03D12368002B00D02B6070BDC0469F
:10CA20009C270020F7B58A8905000C0013075AD40B
:10CA30004B68002B02DC0B6C002B19DDE76A002F22
:10CA400016D000232E682B6080235B011A4001D092
:10CA5000606D14E00123216A2800B847431C0ED101
:10CA60002B68002B0BD01D2B01D0162B02D12E6072
:10CA700000205AE04022A3891343A38155E0A389F3
:10CA80005B0706D56368C01A636B002B01D0236C6B
:10CA9000C01A00230200216A2800E76AB847A38968
:10CAA000421C06D129681D293AD8204ACA40D2071B
:10CAB00036D50022626022692260DB0405D5431C62
:10CAC00002D12B68002B00D16065616B2E600029BC
:10CAD000CED023004433994202D02800FFF7E0F97A
:10CAE0000020606321E00F69002FC1D00B680F6048
:10CAF000DB1B01930023920700D14B69A36003E085
:10CB0000019B3F181B1A0193019B002BB0DD019B79
:10CB10003A00216A2800A66AB0470028F0DCA38901
:10CB2000402201201343A3814042FEBD010040206A
:10CB30000B6970B505000C00002B01D100201CE032
:10CB4000002804D08369002B01D1FFF7C3FA0B4BF7
:10CB50009C4201D16C6808E0094B9C4201D1AC6851
:10CB600003E0084B9C4200D1EC680C22A35E002B32
:10CB7000E4D021002800FFF755FF70BD6CDD0100F7
:10CB80008CDD0100ACDD010070B50500080011006E
:10CB90000022064C22601A0000F0CAF8431C03D1A0
:10CBA0002368002B00D02B6070BDC0469C2700205E
:10CBB00070B50E001D000E23C95E90B01400002950
:10CBC00006DA00232B60B3891B060FD540230FE044
:10CBD00001AA00F071F80028F3DBF023029A1B028F
:10CBE0001340054A9B185A4253412B608023DB00B7
:10CBF0000020236010B070BD00E0FFFFF7B50226F3
:10CC00008B8905000C00334210D101AB6A46FFF757
:10CC1000CFFF009907002800FFF78EF900280CD1FC
:10CC20000C22A35E9A0523D43343A3812300473308
:10CC300023602361012363611AE080220D4BAB6204
:10CC4000A38920601343A381009B20616361019B42
:10CC5000002B0AD00E23E15E280000F03FF80028E8
:10CC600003D00122A3891343A381A3891F43A78172
:10CC7000F7BDC04651C00100C9B28218904204D02D
:10CC800003788B4202D00130F8E7002070470000A3
:10CC900070B50500080011000022064C22601A0041
:10CCA00000F04EF8431C03D12368002B00D02B600A
:10CCB00070BDC0469C270020002370B5064C0500BF
:10CCC00008001100236000F023F8431C03D12368FF
:10CCD000002B00D02B6070BD9C270020002370B576
:10CCE000064C05000800236000F01AF8431C03D12D
:10CCF0002368002B00D02B6070BDC0469C2700200D
:10CD000058220120014B40421A6070479C270020A6
:10CD100058220120014B40421A6070479C27002096
:10CD20005822024B00201A607047C0469C27002002
:10CD300058220120014B40421A6070479C27002076
:10CD400058220120014B40421A6070479C27002066
:10CD5000044A1368002B03D018181060180070479D
:10CD6000014BF9E730230020A0270020F8B5C0468A
:10CD7000F8BC08BC9E467047F8B5C046F8BC08BC75
:10CD80009E4670474300000000200020B48301004D
:10CD9000C483010048840100E6830100208401006F
:10CDA00012830100568301009C2200207561727479
:10CDB000206572726F723A20256C750A00000000BF
:10CDC0000D545749206572726F722C20636F646531
:10CDD0003A20256C78207C20617420256C752075A4
:10CDE000736563732C2066726F6D2064657669636A
:10CDF000653A20256C640A008300000000080000EA
:10CE00000001001832000500000020410000D2425D
:10CE1000295C0F3E9A99993E3333733F295C0F3E4C
:10CE2000252335783A20252335780D0A00000000A7
:10CE3000556E737570706F7274656420736F66746D
:10CE4000776172652070726F6475637420726576A5
:10CE50002025642E0A00000050726F6475637420F0
:10CE600049442072656164206173203020696E64DA
:10CE700069636174657320646576696365206973AD
:10CE80002065697468657220696E636F6D70617486
:10CE900069626C65206F7220616E204D5055333091
:10CEA00035302E0A0000000048616C662073656E04
:10CEB0007369746976697479207061727420666F21
:10CEC000756E642E0A0000006800000476005401AC
:10CED000F7FD000175191A0C6A231B1C00001F20A6
:10CEE0007274433B4138393A006B6C376F06246DDE
:10CEF0006E7000004CCD6C000CC92C0036567600CC
:10CF000026466600FEF2ABC4AAF1DFDFBBAFDFDF6F
:10CF1000B8AAB38DB4980D355D000000B8AAAAAACE
:10CF2000B088C3C5C7000000D8B1B9F38BA391B6D0
:10CF300009B4D900DAB1B9F38BA391B6DAB4DA0047
:10CF40000000700000000024000000020003000048
:10CF500000650054FFEF0000FA80000B1282000110
:10CF6000030C30C30E8C8CE914D5400213710F8E64
:10CF70003883F8833000F883258EF8833000F883F7
:10CF8000FFFFFFFF0FFEA9D6240004001A8279A13B
:10CF90000000003CFFFF00000010000038836FA27B
:10CFA000003E03304000000002CAE3093E8000005A
:10CFB00020000000000000004000000060000000B1
:10CFC000000C0000000C186E000006920A16C0DF6C
:10CFD000FFFF0256FD8CD377FFE1C496E0C5BEAAE1
:10CFE00000000000FFFF0B2B000016570000035944
:10CFF0004000000000001DFA00026C1D000000004F
:10D000003FFFDFEB003EB3B6000D227800002F3C5F
:10D0100000000000001942B5000039A20000B3650D
:10D02000D90E9FC91DCF4C343000000050000000C5
:10D030003BB67AE80064000000C800000000000071
:10D04000100000001000FA921000225E000D229FD6
:10D050000001000000320000FF46000063D4000021
:10D060001000000004D6000004CC000004CC000036
:10D0700000001072000000400000000000000000EE
:10D080000006000200050007000000000064000028
:10D090000000000000000005000500640020000002
:10D0A000000000000000000000004000000003003D
:10D0B00000000032F8980000FF650000830F0000B8
:10D0C000FF9BFC00000000000000000000000000CA
:10D0D0000000000000000000000000000000000050
:10D0E0000000000000000000000000000000100030
:10D0F00040000000000000060000B26A00020000CC
:10D100000001FB830068000000D9FC007CF1FF8374
:10D110000000000000650000006403E800640028CF
:10D12000000000250000000016A000000000100014
:10D1300000001000002F0000000001F400001000AB
:10D1400000280000FFFF4581FFFFFA720000000089
:10D1500000000000004400050005BAC6004778A2A0
:10D1600000000001000000000000060000000014A4
:10D170000000254D002F706D000005AE000C02D0A0
:10D18000000000000000000000000000000000009F
:10D19000001B000000000000000000000000000074
:10D1A0000064000000080000000000000000000013
:10D1B000000000000000000000000000000000006F
:10D1C000000000000000000000000000000000005F
:10D1D000000000000000000000000000000000004F
:10D1E000000000000000000000000000000000003F
:10D1F000000000000000000000000000000000002F
:10D20000001B00000000000000000000000E000EE7
:10D2100000000AC70004000000000032FFFFFF9C6E
:10D2200000000B2B00000002000000010000006461
:10D23000FFE500000000000000000000000000000A
:10D2400000000001000000000001000000000000DC
:10D25000000180000001800000018000002426D32E
:10D260000000000000000000000600100096003CD6
:10D2700000000000000000000000000000000000AE
:10D280000C0A4E68CDCF770950166759C619CE8261
:10D29000000000000000000000000000000000008E
:10D2A000000000000000000017D784000300000009
:10D2B0000000000000000000C7938F9D1E1B1C197A
:10D2C000000000000000000000000000000000005E
:10D2D000000000000000000002031885000040006C
:10D2E0000000000300000003000000000000000038
:10D2F00040000000000000000000000000000000EE
:10D30000000000000000000000000000000000001D
:10D31000000000000000000000000000000000000D
:10D3200000000000677DDF7E72902E554CF6E68887
:10D3300000000000000000000000000000000000ED
:10D34000D8DCB4B8B0D8B9ABF3F8FAB3B7BB8E9E9B
:10D35000AEF132F51BF1B4B8B08097F1A9DFDFDF91
:10D36000AADFDFDFF2AAC5CDC7A90CC92C97F1A9A6
:10D3700089264666B28999A92D557DB0B08AA896AE
:10D38000365676F1BAA3B4B280C0B8A89711B2836A
:10D3900098BAA3F0240844106418B2B9B49883F181
:10D3A000A329557DBAB5B1A38393F0002850F5B2F7
:10D3B000B6AA839328547CF1B9A3829361BAA2DA06
:10D3C000DEDFDB819AB9AEF5606870F1DABAA2DF10
:10D3D000D9BAA2FAB9A38292DB31BAA2D9BAA2F819
:10D3E000DF85A4D0C1BBAD83C2C5C7B8A2DFDFDF74
:10D3F000BAA0DFDFDFD8D8F1B8AAB38DB4980D3565
:10D400005DB2B6BAAF8C96198F9FA70E161EB49A4E
:10D41000B8AA872C547CBAA4B08AB691325676B298
:10D420008494A4C808CDD8B8B4B0F19982A82D5579
:10D430007D98A80E161EA22C547C92A4F02C507835
:10D44000F184A898C4CDFCD80DDBA8FC2DF3D9BA83
:10D45000A6F8DABAA6DED8BAB2B68696A6D0F3C8CF
:10D4600041DAA6C8F8D8B0B4B882A892F52C54888E
:10D4700098F135D9F418D8F1A2D0F8F9A884D9C711
:10D48000DFF8F883C5DADF69DF83C1D8F40114F16E
:10D49000A8824EA884F311D182F5D992289788F1F9
:10D4A00009F41C1CD884A8F3C0F9D1D99782F129BA
:10D4B000F40DD8F3F9F9D1D982F4C203D8DEDF1A1A
:10D4C000D8F1A2FAF9A88498D9C7DFF8F8F883C789
:10D4D000DADF69DFF883C3D8F40114F198A8822E4B
:10D4E000A884F311D182F5D992509788F109F41CE0
:10D4F000D884A8F3C0F8F9D1D99782F149F40DD8AE
:10D50000F3F9F9D1D982F4C403D8DEDFD8F1AD88BC
:10D5100098CCA809F9D98292A8F57CF1883ACF94E1
:10D520004A6E98DB6931DAADF2DEF9D88795A8F258
:10D5300021D1DAA5F9F417D9F1AE8ED0C0C3AE82ED
:10D54000C684C3A88595C8A588F2C0F1F4010EF180
:10D550008E9EA8C63E56F554F18872F40115F198D6
:10D5600045856EF58E9E0488F142985A8E9E0688F7
:10D5700069F4011CF1981E1108D0F504F11E970200
:10D5800002983625DBF9D985A5F3C1DA85A5F3DF45
:10D59000D88595A8F309DAA5FAD88292A8F578F18A
:10D5A000881A849F26889821DAF41DF3D8879F393A
:10D5B000D1AFD9DFDFFBF9F40CF3D8FAD0F8DAF900
:10D5C000F9D0DFD9F9D8F40BD8F3879F39D1AFD987
:10D5D000DFDFF41DF3D8FAFCA869F9F9AFD0DADE81
:10D5E000FAD9F88F9FA8F1CCF398DB45D9AFDFD0FB
:10D5F000F8D8F18F9FA8CAF38809DAAF8FCBF8D893
:10D60000F2AD978D0CD9A5DFF9BAA6F3FAF412F2B0
:10D61000D8950DD1D9BAA6F3FADAA5F2C1BAA6F314
:10D62000DFD8F1BAB2B68696A6D0CAF349DAA6CB4D
:10D63000F8D8B0B4B8D8AD84F2C0DFF18FCBC3A8AE
:10D64000B2B68696C8C1CBC3F3B0B48898A821DB24
:10D65000718D9D71859521D9ADF2FAD88597A8284D
:10D66000D9F408D8F28D29DAF405D9F285A4C2F2EA
:10D67000D8A88D9401D1D9F411F2D88721D8F40A11
:10D68000D8F28498A8C801D1D9F411D8F3A4C8BBA2
:10D69000AFD0F2DEF8F8F8F8F8F8F8F8D8F1B8F604
:10D6A000B5B9B08A95A3DE3CA3D9F8D85CA3D9F864
:10D6B000D87CA3D9F8D8F8F9D1A5D9DFDAFAD8B14E
:10D6C0008530F7D9DED8F830ADDADED8F2B48C99EF
:10D6D000A32D557DA083DFDFDFB591A0F629D9FB0F
:10D6E000D8A0FC29D9FAD8A0D051D9F8D8FC51D962
:10D6F000F9D879D9FBD8A0D0FC79D9FAD8A1F9F911
:10D70000F9F9F9A0DADFDFDFD8A1F8F8F8F8F8AC1A
:10D71000DEF8ADDE8393AC2C547CF1A8DFDFDFF6BE
:10D720009D2CDAA0DFD9FADB2DF8D8A850DAA0D0EA
:10D73000DED9D0F8F8F8DB55F8D8A878DAA0D0DF31
:10D74000D9D0FAF8F8F8F8DB7DF8D89CA88CF53039
:10D75000DB38D9D0DEDFA0D0DEDFD8A848DB58D94F
:10D76000DFD0DEA0DFD0DED8A868DB70D9DFDFA095
:10D77000DFDFD8F1A888902C547C98A8D05C38D1F1
:10D78000DAF2AE8CDFF9D8B087A8C1C1B188A8C6DB
:10D79000F9F9DA36D8A8F9DA36D8A8F9DA36D8A8F5
:10D7A000F9DA36D8A8F9DA36D8F78D9DADF818DA57
:10D7B000F2AEDFD8F7ADFA30D9A4DEF9D8F2AEDE9A
:10D7C000FAF983A7D9C3C5C7F1889BA77AADF7DE5D
:10D7D000DFA4F8849408A797F300AEF29819A48800
:10D7E000C6A39488F632DFF28393DB09D9F2AADF6D
:10D7F000D8D8AEF8F9D1DAF3A4DEA7F1889B7AD8AD
:10D80000F38494AE19F9DAAAF1DFD8A881C0C3C5B0
:10D81000C7A39283F628ADDED9F8D8A350ADD9F8C6
:10D82000D8A378ADD9F8D8F8F9D1A1DADEC3C5C745
:10D83000D8A18194F818F2B089ACC3C5C7F1D8B8A3
:10D84000B4B09786A8319B069907AB9728889BF0C0
:10D850000C201440B0B4B8F0A88A9A285078B79B2E
:10D86000A8295179247059446938644831F1BBAB17
:10D8700088002C547CF0B38BB8A804285078F1B001
:10D8800088B49726A85998BBABB38B02264666B0DE
:10D89000B8F08A9CA82951798B2951798A2470592A
:10D8A0008B2058718A4469388B3940688A644831C2
:10D8B0008B30496088F1AC002C547CF08CA8042893
:10D8C0005078F1889726A85998AC8C02264666F0C5
:10D8D000899CA8295179247059446938644831A930
:10D8E0008809205970AB11384069A8193148608CFB
:10D8F000A83C415C207C00F187981986A86E767E52
:10D90000A999882D557DD8B1B5B9A3DFDFDFAED099
:10D91000DFAAD0DEF2ABF8F9D9B087C4AAF1DFDF15
:10D92000BBAFDFDFB9D8B1F1A3978E60DFB084F26F
:10D93000C8F8F9D9DED89385F14AB183A308B58335
:10D940009A0810B79F10D8F1B0BAAEB08AC2B2B67A
:10D950008E9EF1FBD9F41DD8F9D90CF1D8F8F8ADA9
:10D9600061D9AEFBD8F40CF1D8F8F8AD19D9AEFBFB
:10D97000DFD8F416F1D8F8AD8D61D9F4F4ACF59C8C
:10D980009C8DDF2BBAB6AEFAF8F40BD8F1AED0F816
:10D99000AD51DAAEFAF8F1D8B9B1B6A3839C08B9A3
:10D9A000B1839AB5AAC0FD3083B79F10B58B93F2AF
:10D9B0000202D1ABDADED8F1B080BAABC0C3B28418
:10D9C000C1C3D8B1B9F38BA391B609B4D9ABDEB05A
:10D9D000879CB9A3DDF1B38B8B8B8B8BB087A3A313
:10D9E000A3A3B28BB69BF2A3A3A3A3A3A3A3A3A3B6
:10D9F000A3F1B087B59AA3F39BA3A3DCBAACDFB9BC
:10DA0000A3A3A3A3A3A3A3A3A3A3A3A3A3A3A3A3E6
:10DA1000D8D8D8BBB3B7F1AAF9DAFFD9809AAA2827
:10DA2000B48098A720B79787A86688F07951F190BD
:10DA30002C870CA781976293F071716085940129FE
:10DA4000517990A5F1284C6C870C95188578A383A3
:10DA500090284C6C886CD8F3A28200F210A892191E
:10DA600080A2F2D926D8F188A84DD948D896A839ED
:10DA700080D93CD89580A839A68698D92CDA87A772
:10DA80002CD8A8899519A980D938D8A88939A9800E
:10DA9000DA3CD8A82EA83990D90CD8A8953198D9B5
:10DAA0000CD8A809D9FFD801DAFFD89539A9DA2608
:10DAB000FFD890A80D8999A810809821DA2ED889CE
:10DAC00099A83180DA2ED8A886963180DA2ED8A887
:10DAD000873180DA2ED8A88292F34180F1D92ED8EE
